:02000000018875
:05000300787911A5321F
:05001300787B11A5320D
:10002B0030CE2130CF17801010D81C10D92310DA06
:10003B002A10DB3110DC3832E5CB30E707C2CE7843
:10004B007C11A532C2CF32743031B57400A29380CB
:10005B0026743131B57401A294801C743231B5749D
:10006B0002A2958012743331B57403A29680087482
:10007B003431B57404A29733787D11A532756F7046
:10008B0075817D9000BBC082C0835159438701802D
:10009B00FBA681156FA86F868122A96FA781056FBB
:1000AB008681767F22A96FA781056F18888111C27F
:1000BB00156FA86F868122C082C08322C2BAD2B3C9
:1000CB00D28A22C28BD2AA787B119CC2AA90E0A0C2
:1000DB00E0540F2290E0907401F07400F02275222E
:1000EB000075230075200075210074013114800CFC
:1000FB0075200075210074023114800075250A7576
:10010B002400D524FDD525F72290E080F011DF7572
:10011B002432D524FD22240880EF1521741080E9A8
:10012B000521741480E3741880DF741C80DB7480E9
:10013B0025213000022440300102241480CB85227B
:10014B002085232180E885202285212322743831C4
:10015B0014740631147404312111E922052190E045
:10016B0081F011DF752432D524FD22E493A3600CBA
:10017B00C082C0833167D083D08280EF2231587820
:10018B00087A0D74303167760008DAF72275200093
:10019B00F5212408F8313906B60A027600E6243038
:1001AB0031672275150175160022851520851621DC
:1001BB00C0E03139D0E031670516E516B4140D7582
:1001CB0016000515E515B4040375150122D2B2C24C
:1001DB00B8D288D2A8746631B57879119C74003185
:1001EB0098746731B580EED2B3C2BAD28AD2AA74F0
:1001FB006831B5787B119C74013198746931B58085
:10020B00EED291C2BDD2C8C2C9D2CBD2AD746A31C3
:10021B00B5787C119C74023198746B31B580EE7596
:10022B00DA3175DB3175DC3175DD3175DE31D29349
:10023B00D294D295D296D297D2AEC2BE746C31B54F
:10024B00787D119C24033198746D31B580EE318823
:10025B0031AE746131B578909001D811B0746231C0
:10026B00B578A09001F211B0746331B578B09002FB
:10027B000C11B0746431B578C090022A11B074655A
:05028B0031B5D2AF22E5
:00000001FF
