:02000000804F2F
:050003007872116E325D
:05000B007873116E3254
:050013007874116E324B
:05001B007875116E3242
:07002300109921109823320F
:10002B0030CB1230CE0F30CF05E5CB30E707C2CE49
:10003B007879116E32C2CF7878116E327877116E73
:10004B00327876116E3275696A75817D900084C045
:10005B0082C08331DC43870180FBA6811569A869C7
:10006B00868122A969A78105698681767F22A96984
:10007B00A7810569188881118B1569A8698681226A
:10008B00C082C08322C2BAD2B3D28A22C28BD2AA76
:10009B0078741165C2AA90E0A0E0540F2290E09012
:1000AB007401F07400F02275220075230075200096
:1000BB00752100740111DD800C7520007521007411
:1000CB000211DD800075250A752400D524FDD52588
:1000DB00F72290E080F011A8752432D524FD22245C
:1000EB000880EF1521741080E90521741480E374E6
:1000FB001880DF741C80DB748025213000022440C3
:10010B00300102241480CB85222085232180E885B1
:10011B00202285212322743811DD740611DD74042D
:10012B0011EA11B222052190E081F011A875243259
:10013B00D524FD22E493A3600CC082C0833130D060
:10014B0083D08280EF225468697320697320612009
:10015B00746573742E001197B4000C1197FD1197F1
:10016B00CDC42D31302161B4010411B22161B4022F
:10017B000411C42161B403081197540711EA2161DA
:10018B00B4040411EE2161B4050411F42161B40629
:10019B000411FA2161B4070411FE2161B408101196
:1001AB00975403F5201197541FF52131022161B4A7
:1001BB00090431212161B40A08E4900151313F2136
:1001CB0061B40B04311A2161B40C04311221612189
:0D01DB0061119078909001611179D2AF22EE
:00000001FF
