:02000000217D60
:05000300781D31B1324F
:0D000B00312D32781F31B132781E31B13203
:070023001099E8C29880E982
:10002B0030CE1230CF14800820075530DF68802186
:10003B00E5CB20E705C2CF51BF32C2CED524117517
:10004B00241485CA2A85CB2B850A2C850B2DD20827
:10005B0032D20730D806E5FAA2E7920030D906E58E
:10006B00FBA2E7920130DA06E5FCA2E7920230DB55
:10007B0006E5FDA2E7920330DC06E5FEA2E792045B
:10008B0010007B10016110024710032D100413C2E6
:10009B0007C2DF51A23210D86710D94D10DA3310D6
:1000AB00DB19C2DCD5291175291485EE3E85FE3F7F
:1000BB00850840850941D20D32C2DBD52811752840
:1000CB001485ED3A85FD3B85083C85093DD20C3204
:1000DB00C2DAD5271175271485EC3685FC378508D0
:1000EB0038850939D20B32C2D9D52611752614851C
:1000FB00EB3285FB33850834850935D20A32C2D8F9
:10010B00D5251175251485EA2E85FA2F850830859E
:10011B000931D20932758A30758CF8C28DD28CD2E6
:10012B00A922C2A9C28C10081910091E100A23108B
:10013B000B28100C2D100D3280DB717080D7718D58
:10014B0080D37523001010F280F47523011011EA8F
:10015B0080EC7523021012E280E47523031013DA8E
:10016B0080DC7523041014D280D47523051015CAB6
:10017B0080CC75191A7581AD90019CC082C083B17A
:10018B004743870180FBA919A7810519188881317D
:10019B00A31519A819868122C082C08322A68115B6
:1001AB0019A819868122A919A7810519868122769A
:1001BB000008DAFB22D3E63400F608DAF922E70965
:1001CB00F608DAFA22C3E69709F608DAF9227D0077
:1001DB00A816E6FA0516A8180518A917AB157C0082
:1001EB006023EA87F009A42CC5F03400C5F026F68D
:1001FB0008E5F03400FCDBEAAB14EC26F6085005FE
:10020B007401DBF70DD514C8227598C0C2BCC2CDE2
:10021B00C2CCE589540F2420F589758DFDD28EC291
:10022B009BC298C299D29DD2AC2230B404C2B4D234
:10023B009C781E31A8E59930E6F0543F2220B40893
:10024B007E64DEFEC29CD2B4F599781F31A822756C
:10025B00D90175DA1175DB1175DC1175DD1175DEE0
:10026B0011D293D294D295D296D297C2BE22D2916A
:10027B00D2C8D2CBC2C9C2BD22E58954F02401F544
:10028B0089C2B92275E90075F90075080075090076
:10029B00C2DFD2AED2DE220508E508700205098066
:1002AB00F575CC0075CD00750A00750B00C2CFD269
:1002BB00ADD2CA22050AE50A7002050B80F585CC82
:1002CB002A85CD2B850A2C850B2D85E92E85F92FBB
:1002DB0085083085093185E93285F9338508348500
:1002EB00093585E93685F93785083885093985E972
:1002FB003A85F93B85083C85093D85E93E85F93F03
:10030B0085084085094122008015C02B003F4055D0
:10031B00806AC0E52323F5F090031293C5F0049394
:10032B00F51085F01122E523232442F8E68AF0A488
:10033B00F51285F01308E68AF0A42513C51322E500
:10034B00102512F582E5113513F583E608F0A3DAD3
:10035B00FA2278247A06760108DAFB75223F782A8E
:10036B007A8431BA22E5232323244EF824DCF97A4C
:10037B000431C9E52323232466F824C4F97A043114
:10038B00C922780CE5232323242AF97A0431C9786E
:10039B000CE52323232466F97A0431D0711E7A04E9
:1003AB007131780C7A04714AE523232442F87A02DE
:1003BB0031C075160C75140475170C751504E523EF
:1003CB00232323247EF51831D980A8D2B2D288C238
:1003DB00B822C2CEC2D8C2D9C2DAC2DBC2DC752106
:1003EB00007520002271D65179515A5184752240E3
:1003FB0022715DC289D2A8781D31A851AC518F7181
:10040B00DD3120C289781D31A8C2A8C28CC2A9C215
:10041B00CAC2ADC2DEC2AE51C92274235148741791
:10042B005148E5225148AB22E52323FF2442F51026
:10043B007A02916C780CEF23FF242AF5107A049141
:10044B006CEF244EF5107A04916CEF2466F5107A5C
:10045B0004916CEF23247EF5107A08916CEB5148D4
:10046B0022A8100510E6CB2BCB5148DAF4227C03E3
:10047B00E51245137005742E514822743A5148E524
:10048B001251487B00851082851183AA12E0A3CB01
:10049B002BCB5148DAF7EB51485135B41B05DC0136
:1004AB00228186B41C13E5126005751200800215BB
:1004BB001385821085831181792251145135F523CF
:1004CB005438C5235407C523B4000E20A8EEE523EA
:1004DB00B4060050E7912580E3B4081420A8DDE5AD
:1004EB0023B4060050D6711E7A047131917980CCF9
:1004FB00B41019E523B400C430AD04743280093054
:10050B00A804743180027430514880B0B4182BE5C4
:10051B0023B4000C20A8A578E09003FC3191809CBB
:10052B00B4071530A896C2A8C28CC2A9C2CAC2AD64
:10053B00C2DEC2AE51C9D21681C781C771F078C86D
:08054B009004C53191D2AF22EA
:00000001FF
