:0200000080324C
:1000230010990410980632787D115132787C115161
:100033003275737475817D900067C082C0833144CB
:1000430043870180FBA6811573A873868122A97358
:100053000573A7818681767F22A9730573A781180B
:100063008881116E1573A873868122C082C0832292
:100073007598C0C2BCC2CDC2CCE589540F2420F50B
:1000830089758DFF438780D28EC29BC298C299D255
:10009300AC22C2B4D29DD29C22C29CD2B422787C20
:1000A3001148E599309D07B43A02C29D80F022744D
:1000B3000D11B8740AF599787D114822540FB40ACA
:1000C300004005245711B822243011B822CB2BCB82
:1000D300C0E0C411BFD0E011BF22743A11B87B0055
:1000E300740011D0E58311D0E58211D0740111D0D1
:1000F300EBF411D011B222743A11B87B00741011D1
:10010300D0E58311D0E58211D0740011D07A10E4C8
:1001130093A311D0DAF9EBF411D011B222900000BD
:10012300E583B42000500411FA80F511DD22117328
:10013300119511A1B47304312080F5119C11B8807D
:0B014300EF7890900131115CD2AF22E8
:00000001FF
